{
  "contractName": "Core",
  "abi": [
    {
      "constant": true,
      "inputs": [],
      "name": "totalCampaigns",
      "outputs": [
        {
          "name": "",
          "type": "uint256"
        }
      ],
      "payable": false,
      "stateMutability": "view",
      "type": "function"
    },
    {
      "constant": true,
      "inputs": [],
      "name": "name",
      "outputs": [
        {
          "name": "_name",
          "type": "string"
        }
      ],
      "payable": false,
      "stateMutability": "pure",
      "type": "function"
    },
    {
      "constant": false,
      "inputs": [
        {
          "name": "_to",
          "type": "address"
        },
        {
          "name": "_tokenId",
          "type": "uint256"
        }
      ],
      "name": "approve",
      "outputs": [],
      "payable": false,
      "stateMutability": "nonpayable",
      "type": "function"
    },
    {
      "constant": true,
      "inputs": [],
      "name": "campaignEscrowAmount",
      "outputs": [
        {
          "name": "",
          "type": "uint256"
        }
      ],
      "payable": false,
      "stateMutability": "view",
      "type": "function"
    },
    {
      "constant": true,
      "inputs": [],
      "name": "totalSupply",
      "outputs": [
        {
          "name": "",
          "type": "uint256"
        }
      ],
      "payable": false,
      "stateMutability": "view",
      "type": "function"
    },
    {
      "constant": true,
      "inputs": [
        {
          "name": "_tokenId",
          "type": "uint256"
        }
      ],
      "name": "approvedFor",
      "outputs": [
        {
          "name": "",
          "type": "address"
        }
      ],
      "payable": false,
      "stateMutability": "view",
      "type": "function"
    },
    {
      "constant": true,
      "inputs": [
        {
          "name": "_owner",
          "type": "address"
        }
      ],
      "name": "getTotalCampaignsForOwner",
      "outputs": [
        {
          "name": "total",
          "type": "uint256"
        }
      ],
      "payable": false,
      "stateMutability": "view",
      "type": "function"
    },
    {
      "constant": true,
      "inputs": [
        {
          "name": "",
          "type": "address"
        }
      ],
      "name": "campaignOwnerTotalCampaigns",
      "outputs": [
        {
          "name": "",
          "type": "uint256"
        }
      ],
      "payable": false,
      "stateMutability": "view",
      "type": "function"
    },
    {
      "constant": true,
      "inputs": [],
      "name": "founderAddress",
      "outputs": [
        {
          "name": "",
          "type": "address"
        }
      ],
      "payable": false,
      "stateMutability": "view",
      "type": "function"
    },
    {
      "constant": true,
      "inputs": [
        {
          "name": "_id",
          "type": "uint256"
        }
      ],
      "name": "getCampaign",
      "outputs": [
        {
          "name": "owner",
          "type": "address"
        },
        {
          "name": "campaignName",
          "type": "string"
        },
        {
          "name": "taxId",
          "type": "string"
        },
        {
          "name": "active",
          "type": "bool"
        },
        {
          "name": "veto",
          "type": "bool"
        },
        {
          "name": "ready",
          "type": "bool"
        }
      ],
      "payable": false,
      "stateMutability": "view",
      "type": "function"
    },
    {
      "constant": true,
      "inputs": [
        {
          "name": "_owner",
          "type": "address"
        }
      ],
      "name": "tokensOf",
      "outputs": [
        {
          "name": "",
          "type": "uint256[]"
        }
      ],
      "payable": false,
      "stateMutability": "view",
      "type": "function"
    },
    {
      "constant": true,
      "inputs": [],
      "name": "paused",
      "outputs": [
        {
          "name": "",
          "type": "bool"
        }
      ],
      "payable": false,
      "stateMutability": "view",
      "type": "function"
    },
    {
      "constant": true,
      "inputs": [
        {
          "name": "_tokenId",
          "type": "uint256"
        }
      ],
      "name": "ownerOf",
      "outputs": [
        {
          "name": "",
          "type": "address"
        }
      ],
      "payable": false,
      "stateMutability": "view",
      "type": "function"
    },
    {
      "constant": true,
      "inputs": [
        {
          "name": "_owner",
          "type": "address"
        }
      ],
      "name": "balanceOf",
      "outputs": [
        {
          "name": "",
          "type": "uint256"
        }
      ],
      "payable": false,
      "stateMutability": "view",
      "type": "function"
    },
    {
      "constant": true,
      "inputs": [],
      "name": "maxCertificates",
      "outputs": [
        {
          "name": "",
          "type": "uint256"
        }
      ],
      "payable": false,
      "stateMutability": "view",
      "type": "function"
    },
    {
      "constant": true,
      "inputs": [
        {
          "name": "_campaignId",
          "type": "uint256"
        },
        {
          "name": "_certificateIdx",
          "type": "uint64"
        }
      ],
      "name": "getCertificate",
      "outputs": [
        {
          "name": "campaignId",
          "type": "uint256"
        },
        {
          "name": "supply",
          "type": "uint24"
        },
        {
          "name": "remaining",
          "type": "uint24"
        },
        {
          "name": "name",
          "type": "string"
        },
        {
          "name": "price",
          "type": "uint256"
        }
      ],
      "payable": false,
      "stateMutability": "view",
      "type": "function"
    },
    {
      "constant": true,
      "inputs": [],
      "name": "owner",
      "outputs": [
        {
          "name": "",
          "type": "address"
        }
      ],
      "payable": false,
      "stateMutability": "view",
      "type": "function"
    },
    {
      "constant": true,
      "inputs": [
        {
          "name": "",
          "type": "uint256"
        }
      ],
      "name": "campaignCertificateCount",
      "outputs": [
        {
          "name": "",
          "type": "uint256"
        }
      ],
      "payable": false,
      "stateMutability": "view",
      "type": "function"
    },
    {
      "constant": true,
      "inputs": [
        {
          "name": "",
          "type": "address"
        },
        {
          "name": "",
          "type": "uint256"
        }
      ],
      "name": "campaignOwnerToIndexes",
      "outputs": [
        {
          "name": "",
          "type": "uint256"
        }
      ],
      "payable": false,
      "stateMutability": "view",
      "type": "function"
    },
    {
      "constant": true,
      "inputs": [],
      "name": "symbol",
      "outputs": [
        {
          "name": "_symbol",
          "type": "string"
        }
      ],
      "payable": false,
      "stateMutability": "pure",
      "type": "function"
    },
    {
      "constant": true,
      "inputs": [
        {
          "name": "",
          "type": "address"
        }
      ],
      "name": "campaignManagers",
      "outputs": [
        {
          "name": "",
          "type": "bool"
        }
      ],
      "payable": false,
      "stateMutability": "view",
      "type": "function"
    },
    {
      "constant": true,
      "inputs": [
        {
          "name": "",
          "type": "uint256"
        },
        {
          "name": "",
          "type": "uint256"
        }
      ],
      "name": "campaignCertificates",
      "outputs": [
        {
          "name": "campaignId",
          "type": "uint256"
        },
        {
          "name": "price",
          "type": "uint256"
        },
        {
          "name": "supply",
          "type": "uint24"
        },
        {
          "name": "remaining",
          "type": "uint24"
        },
        {
          "name": "name",
          "type": "string"
        }
      ],
      "payable": false,
      "stateMutability": "view",
      "type": "function"
    },
    {
      "constant": false,
      "inputs": [
        {
          "name": "_to",
          "type": "address"
        },
        {
          "name": "_tokenId",
          "type": "uint256"
        }
      ],
      "name": "transfer",
      "outputs": [],
      "payable": false,
      "stateMutability": "nonpayable",
      "type": "function"
    },
    {
      "constant": false,
      "inputs": [
        {
          "name": "_maxCertificates",
          "type": "uint256"
        }
      ],
      "name": "changeMaxCertificates",
      "outputs": [],
      "payable": false,
      "stateMutability": "nonpayable",
      "type": "function"
    },
    {
      "constant": false,
      "inputs": [
        {
          "name": "_campaignId",
          "type": "uint256"
        }
      ],
      "name": "withdrawCampaignBalance",
      "outputs": [],
      "payable": false,
      "stateMutability": "nonpayable",
      "type": "function"
    },
    {
      "constant": false,
      "inputs": [
        {
          "name": "_tokenId",
          "type": "uint256"
        }
      ],
      "name": "takeOwnership",
      "outputs": [],
      "payable": false,
      "stateMutability": "nonpayable",
      "type": "function"
    },
    {
      "constant": true,
      "inputs": [
        {
          "name": "",
          "type": "uint256"
        }
      ],
      "name": "campaignBalance",
      "outputs": [
        {
          "name": "",
          "type": "uint256"
        }
      ],
      "payable": false,
      "stateMutability": "view",
      "type": "function"
    },
    {
      "constant": true,
      "inputs": [],
      "name": "totalRaised",
      "outputs": [
        {
          "name": "",
          "type": "uint256"
        }
      ],
      "payable": false,
      "stateMutability": "view",
      "type": "function"
    },
    {
      "constant": true,
      "inputs": [
        {
          "name": "",
          "type": "uint256"
        }
      ],
      "name": "campaignIndexToOwner",
      "outputs": [
        {
          "name": "",
          "type": "address"
        }
      ],
      "payable": false,
      "stateMutability": "view",
      "type": "function"
    },
    {
      "constant": true,
      "inputs": [
        {
          "name": "_id",
          "type": "uint256"
        }
      ],
      "name": "getToken",
      "outputs": [
        {
          "name": "campaignId",
          "type": "uint256"
        },
        {
          "name": "value",
          "type": "uint256"
        },
        {
          "name": "unitNumber",
          "type": "uint24"
        },
        {
          "name": "purchaser",
          "type": "address"
        },
        {
          "name": "certificateIdx",
          "type": "uint256"
        }
      ],
      "payable": false,
      "stateMutability": "view",
      "type": "function"
    },
    {
      "constant": true,
      "inputs": [
        {
          "name": "_campaignId",
          "type": "uint256"
        }
      ],
      "name": "getCampaignBalance",
      "outputs": [
        {
          "name": "",
          "type": "uint256"
        }
      ],
      "payable": false,
      "stateMutability": "view",
      "type": "function"
    },
    {
      "constant": false,
      "inputs": [
        {
          "name": "newOwner",
          "type": "address"
        }
      ],
      "name": "transferOwnership",
      "outputs": [],
      "payable": false,
      "stateMutability": "nonpayable",
      "type": "function"
    },
    {
      "constant": true,
      "inputs": [
        {
          "name": "_owner",
          "type": "address"
        },
        {
          "name": "_index",
          "type": "uint256"
        }
      ],
      "name": "getCampaignIdByOwnerIndex",
      "outputs": [
        {
          "name": "id",
          "type": "uint256"
        }
      ],
      "payable": false,
      "stateMutability": "view",
      "type": "function"
    },
    {
      "anonymous": false,
      "inputs": [
        {
          "indexed": false,
          "name": "campaignId",
          "type": "uint256"
        }
      ],
      "name": "ReadyCampaign",
      "type": "event"
    },
    {
      "anonymous": false,
      "inputs": [
        {
          "indexed": false,
          "name": "campaignId",
          "type": "uint256"
        }
      ],
      "name": "ActivateCampaign",
      "type": "event"
    },
    {
      "anonymous": false,
      "inputs": [
        {
          "indexed": false,
          "name": "campaignId",
          "type": "uint256"
        }
      ],
      "name": "VetoCampaign",
      "type": "event"
    },
    {
      "anonymous": false,
      "inputs": [
        {
          "indexed": true,
          "name": "owner",
          "type": "address"
        },
        {
          "indexed": true,
          "name": "campaignId",
          "type": "uint256"
        }
      ],
      "name": "CreateCampaign",
      "type": "event"
    },
    {
      "anonymous": false,
      "inputs": [
        {
          "indexed": true,
          "name": "campaignId",
          "type": "uint256"
        },
        {
          "indexed": false,
          "name": "name",
          "type": "string"
        }
      ],
      "name": "CreateCertificate",
      "type": "event"
    },
    {
      "anonymous": false,
      "inputs": [
        {
          "indexed": true,
          "name": "campaignId",
          "type": "uint256"
        },
        {
          "indexed": true,
          "name": "certificateIdx",
          "type": "uint256"
        }
      ],
      "name": "UpdateCertificate",
      "type": "event"
    },
    {
      "anonymous": false,
      "inputs": [
        {
          "indexed": true,
          "name": "campaignId",
          "type": "uint256"
        },
        {
          "indexed": true,
          "name": "certificateIdx",
          "type": "uint256"
        },
        {
          "indexed": true,
          "name": "owner",
          "type": "address"
        }
      ],
      "name": "CreateToken",
      "type": "event"
    },
    {
      "anonymous": false,
      "inputs": [
        {
          "indexed": true,
          "name": "campaignId",
          "type": "uint256"
        },
        {
          "indexed": false,
          "name": "balance",
          "type": "uint256"
        }
      ],
      "name": "WithdrawBalance",
      "type": "event"
    },
    {
      "anonymous": false,
      "inputs": [
        {
          "indexed": true,
          "name": "previousOwner",
          "type": "address"
        },
        {
          "indexed": true,
          "name": "newOwner",
          "type": "address"
        }
      ],
      "name": "OwnershipTransferred",
      "type": "event"
    },
    {
      "anonymous": false,
      "inputs": [
        {
          "indexed": true,
          "name": "_from",
          "type": "address"
        },
        {
          "indexed": true,
          "name": "_to",
          "type": "address"
        },
        {
          "indexed": false,
          "name": "_tokenId",
          "type": "uint256"
        }
      ],
      "name": "Transfer",
      "type": "event"
    },
    {
      "anonymous": false,
      "inputs": [
        {
          "indexed": true,
          "name": "_owner",
          "type": "address"
        },
        {
          "indexed": true,
          "name": "_approved",
          "type": "address"
        },
        {
          "indexed": false,
          "name": "_tokenId",
          "type": "uint256"
        }
      ],
      "name": "Approval",
      "type": "event"
    },
    {
      "constant": false,
      "inputs": [
        {
          "name": "_campaignName",
          "type": "string"
        },
        {
          "name": "_taxid",
          "type": "string"
        }
      ],
      "name": "createCampaign",
      "outputs": [
        {
          "name": "",
          "type": "uint256"
        }
      ],
      "payable": true,
      "stateMutability": "payable",
      "type": "function"
    },
    {
      "constant": false,
      "inputs": [
        {
          "name": "_campaignId",
          "type": "uint32"
        },
        {
          "name": "_supply",
          "type": "uint24"
        },
        {
          "name": "_name",
          "type": "string"
        },
        {
          "name": "_price",
          "type": "uint104"
        }
      ],
      "name": "createCertificate",
      "outputs": [
        {
          "name": "",
          "type": "uint256"
        }
      ],
      "payable": false,
      "stateMutability": "nonpayable",
      "type": "function"
    },
    {
      "constant": false,
      "inputs": [
        {
          "name": "_campaignId",
          "type": "uint256"
        },
        {
          "name": "_certificateIdx",
          "type": "uint256"
        },
        {
          "name": "_supply",
          "type": "uint24"
        },
        {
          "name": "_name",
          "type": "string"
        },
        {
          "name": "_price",
          "type": "uint256"
        }
      ],
      "name": "updateCertificate",
      "outputs": [],
      "payable": false,
      "stateMutability": "nonpayable",
      "type": "function"
    },
    {
      "constant": false,
      "inputs": [
        {
          "name": "_campaignId",
          "type": "uint128"
        },
        {
          "name": "_certificateIdx",
          "type": "uint256"
        }
      ],
      "name": "createToken",
      "outputs": [
        {
          "name": "",
          "type": "uint256"
        }
      ],
      "payable": true,
      "stateMutability": "payable",
      "type": "function"
    },
    {
      "constant": false,
      "inputs": [
        {
          "name": "_campaignId",
          "type": "uint256"
        }
      ],
      "name": "readyCampaign",
      "outputs": [],
      "payable": false,
      "stateMutability": "nonpayable",
      "type": "function"
    },
    {
      "constant": false,
      "inputs": [
        {
          "name": "_campaignId",
          "type": "uint256"
        }
      ],
      "name": "activateCampaign",
      "outputs": [],
      "payable": false,
      "stateMutability": "nonpayable",
      "type": "function"
    },
    {
      "constant": false,
      "inputs": [
        {
          "name": "_campaignId",
          "type": "uint256"
        }
      ],
      "name": "vetoCampaign",
      "outputs": [],
      "payable": false,
      "stateMutability": "nonpayable",
      "type": "function"
    },
    {
      "constant": false,
      "inputs": [
        {
          "name": "_campaignEscrowAmount",
          "type": "uint64"
        }
      ],
      "name": "changeEscrowAmount",
      "outputs": [],
      "payable": false,
      "stateMutability": "nonpayable",
      "type": "function"
    },
    {
      "constant": false,
      "inputs": [],
      "name": "pause",
      "outputs": [],
      "payable": false,
      "stateMutability": "nonpayable",
      "type": "function"
    },
    {
      "constant": false,
      "inputs": [],
      "name": "unpause",
      "outputs": [],
      "payable": false,
      "stateMutability": "nonpayable",
      "type": "function"
    },
    {
      "constant": false,
      "inputs": [
        {
          "name": "manager",
          "type": "address"
        }
      ],
      "name": "addManager",
      "outputs": [],
      "payable": false,
      "stateMutability": "nonpayable",
      "type": "function"
    },
    {
      "constant": false,
      "inputs": [
        {
          "name": "manager",
          "type": "address"
        }
      ],
      "name": "removeManager",
      "outputs": [],
      "payable": false,
      "stateMutability": "nonpayable",
      "type": "function"
    },
    {
      "constant": false,
      "inputs": [],
      "name": "selfDestruct",
      "outputs": [],
      "payable": false,
      "stateMutability": "nonpayable",
      "type": "function"
    }
  ],
  "bytecode": "0x60606040526064600955600060108190556011556013805460ff1916905560058054600160a060020a033316600160a060020a0319909116179055612b76806100496000396000f30060606040526004361061022f5763ffffffff7c010000000000000000000000000000000000000000000000000000000060003504166302932f56811461023457806306fdde0314610259578063095ea7b3146102e3578063135c442314610307578063173071341461037f57806318160ddd1461039257806319ad9577146103a55780632a6dd48f146103bb5780632d06177a146103ed5780632d85ea121461040c5780633da70bd51461042b5780633f4ba83a1461044a57806346bb28331461045d578063493f1726146104705780635598f8cc146104865780635a3f2672146105a85780635c975abb1461061a5780635cceb24b146106415780636352211e1461066157806370a08231146106775780637204ca151461069657806381cdb4c3146106a95780638456cb59146107675780638da5cb5b1461077a57806390722b751461078d57806391417542146107a3578063955202f8146107c557806395d89b411461082b5780639c0d9c3b1461083e5780639cb8a26a1461085d578063a5f8777514610870578063a9059cbb146108e4578063a9cd4a1f14610906578063ac18de431461091c578063ae18e0831461093b578063b2cdc6ff14610951578063b2e6ceeb14610967578063bd6c67e91461097d578063c5c4744c14610993578063ced3c6ad146109a6578063d6e0a37f146109bc578063e4b50cb8146109dc578063eb044b9714610a40578063f2fde38b14610a56578063fce3f6ac14610a75578063fea62cae14610afd575b600080fd5b341561023f57600080fd5b610247610b1f565b60405190815260200160405180910390f35b341561026457600080fd5b61026c610b2a565b60405160208082528190810183818151815260200191508051906020019080838360005b838110156102a8578082015183820152602001610290565b50505050905090810190601f1680156102d55780820380516001836020036101000a031916815260200191505b509250505060405180910390f35b34156102ee57600080fd5b610305600160a060020a0360043516602435610b6b565b005b341561031257600080fd5b6102476004803563ffffffff16906024803562ffffff16919060649060443590810190830135806020601f82018190048102016040519081016040528181529291906020840183838082843750949650505092356cffffffffffffffffffffffffff169250610c5d915050565b341561038a57600080fd5b610247610d82565b341561039d57600080fd5b610247610d88565b34156103b057600080fd5b610305600435610d8e565b34156103c657600080fd5b6103d1600435610e5b565b604051600160a060020a03909116815260200160405180910390f35b34156103f857600080fd5b610305600160a060020a0360043516610e76565b341561041757600080fd5b610247600160a060020a0360043516610eb5565b341561043657600080fd5b610247600160a060020a0360043516610ed0565b341561045557600080fd5b610305610ee2565b341561046857600080fd5b6103d1610f09565b341561047b57600080fd5b610305600435610f18565b341561049157600080fd5b61049c600435611025565b604051600160a060020a03871681528315156060820152821515608082015281151560a082015260c060208201818152906040830190830188818151815260200191508051906020019080838360005b838110156105045780820151838201526020016104ec565b50505050905090810190601f1680156105315780820380516001836020036101000a031916815260200191505b50838103825287818151815260200191508051906020019080838360005b8381101561056757808201518382015260200161054f565b50505050905090810190601f1680156105945780820380516001836020036101000a031916815260200191505b509850505050505050505060405180910390f35b34156105b357600080fd5b6105c7600160a060020a03600435166111dd565b60405160208082528190810183818151815260200191508051906020019060200280838360005b838110156106065780820151838201526020016105ee565b505050509050019250505060405180910390f35b341561062557600080fd5b61062d611260565b604051901515815260200160405180910390f35b341561064c57600080fd5b61030567ffffffffffffffff60043516611269565b341561066c57600080fd5b6103d1600435611293565b341561068257600080fd5b610247600160a060020a03600435166112bd565b34156106a157600080fd5b6102476112d8565b34156106b457600080fd5b6106cc60043567ffffffffffffffff602435166112de565b60405185815262ffffff8086166020830152841660408201526080810182905260a06060820181815290820184818151815260200191508051906020019080838360005b83811015610728578082015183820152602001610710565b50505050905090810190601f1680156107555780820380516001836020036101000a031916815260200191505b50965050505050505060405180910390f35b341561077257600080fd5b6103056113fb565b341561078557600080fd5b6103d1611425565b341561079857600080fd5b610247600435611434565b34156107ae57600080fd5b610247600160a060020a0360043516602435611446565b34156107d057600080fd5b6103056004803590602480359162ffffff604435169160849060643590810190830135806020601f82018190048102016040519081016040528181529291906020840183838082843750949650509335935061147492505050565b341561083657600080fd5b61026c61156e565b341561084957600080fd5b61062d600160a060020a03600435166115af565b341561086857600080fd5b6103056115c4565b341561087b57600080fd5b6108896004356024356115ed565b6040518581526020810185905262ffffff80851660408301528316606082015260a060808201818152908201838181518152602001915080519060200190808383600083811015610728578082015183820152602001610710565b34156108ef57600080fd5b610305600160a060020a03600435166024356116e1565b341561091157600080fd5b610305600435611718565b341561092757600080fd5b610305600160a060020a0360043516611747565b341561094657600080fd5b610305600435611783565b341561095c57600080fd5b610305600435611850565b341561097257600080fd5b610305600435611a18565b341561098857600080fd5b610247600435611a43565b341561099e57600080fd5b610247611a55565b34156109b157600080fd5b6103d1600435611a5b565b6102476fffffffffffffffffffffffffffffffff60043516602435611a76565b34156109e757600080fd5b6109f2600435611bc4565b604051808681526020018581526020018462ffffff1662ffffff16815260200183600160a060020a0316600160a060020a031681526020018281526020019550505050505060405180910390f35b3415610a4b57600080fd5b610247600435611c37565b3415610a6157600080fd5b610305600160a060020a0360043516611c49565b61024760046024813581810190830135806020601f8201819004810201604051908101604052818152929190602084018383808284378201915050505050509190803590602001908201803590602001908080601f016020809104026020016040519081016040528181529291906020840183838082843750949650611ce495505050505050565b3415610b0857600080fd5b610247600160a060020a0360043516602435611d5c565b600754600019015b90565b610b32612819565b60408051908101604052600881527f48657269746167650000000000000000000000000000000000000000000000006020820152919050565b60008133600160a060020a0316610b8182611293565b600160a060020a031614610b9457600080fd5b610b9d83611293565b9150600160a060020a038481169083161415610bb857600080fd5b610bc183610e5b565b600160a060020a0316151580610bdf5750600160a060020a03841615155b15610c575760008381526002602052604090819020805473ffffffffffffffffffffffffffffffffffffffff1916600160a060020a0387811691821790925591908416907f8c5be1e5ebec7d5bd14f71427d1e84f3dd0314c0f7b2291e5b200ac8c7c3b9259086905190815260200160405180910390a35b50505050565b601354600090819060ff1615610c7257600080fd5b600160a060020a03331660009081526012602052604090205460ff161515600114610c9c57600080fd5b63ffffffff86166000908152600a602052604090205433600160a060020a03908116911614610cca57600080fd5b600063ffffffff871611610cdd57600080fd5b600062ffffff861611610cef57600080fd5b6007805463ffffffff8816908110610d0357fe5b60009182526020909120600490910201600381015490915060ff1615610d2857600080fd5b6003810154610100900460ff1615610d3f57600080fd5b600381015462010000900460ff1615610d5757600080fd5b610d788663ffffffff168686866cffffffffffffffffffffffffff16611d94565b9695505050505050565b60105481565b60005490565b600160a060020a03331660009081526012602052604090205460ff161515600114610db857600080fd5b60008111610dc557600080fd5b6000818152600a602052604090205433600160a060020a03908116911614610dec57600080fd5b6001600782815481101515610dfd57fe5b906000526020600020906004020160030160026101000a81548160ff0219169083151502179055507f3f736ff1bf5c4bf87934f39f1b28f7991a787b08a0fcfffadb631c897fee35978160405190815260200160405180910390a150565b600090815260026020526040902054600160a060020a031690565b60055433600160a060020a03908116911614610e9157600080fd5b600160a060020a03166000908152601260205260409020805460ff19166001179055565b600160a060020a03166000908152600c602052604090205490565b600c6020526000908152604090205481565b60055433600160a060020a03908116911614610efd57600080fd5b6013805460ff19169055565b600654600160a060020a031681565b60055433600160a060020a03908116911614610f3357600080fd5b60008111610f4057600080fd5b6007805482908110610f4e57fe5b600091825260209091206003600490920201015460ff1615610f6f57600080fd5b6007805482908110610f7d57fe5b6000918252602090912060049091020160030154610100900460ff1615610fa357600080fd5b6000818152600e602052604081205411610fbc57600080fd5b6001600782815481101515610fcd57fe5b60009182526020909120600490910201600301805460ff19169115159190911790557f654d8eebe83f5c9a3d922533e6a30bcb25c11d78ce18b205a0bbc0a4391e1d008160405190815260200160405180910390a150565b600061102f612819565b611037612819565b60008060008060078881548110151561104c57fe5b906000526020600020906004020190508060000160009054906101000a9004600160a060020a03169650806001018054600181600116156101000203166002900480601f01602080910402602001604051908101604052809291908181526020018280546001816001161561010002031660029004801561110e5780601f106110e35761010080835404028352916020019161110e565b820191906000526020600020905b8154815290600101906020018083116110f157829003601f168201915b50505050509550806002018054600181600116156101000203166002900480601f0160208091040260200160405190810160405280929190818152602001828054600181600116156101000203166002900480156111ad5780601f10611182576101008083540402835291602001916111ad565b820191906000526020600020905b81548152906001019060200180831161119057829003601f168201915b505050600390930154989a979950909760ff80821698610100830482169850620100009092041695509350505050565b6111e5612819565b6003600083600160a060020a0316600160a060020a0316815260200190815260200160002080548060200260200160405190810160405280929190818152602001828054801561125457602002820191906000526020600020905b815481526020019060010190808311611240575b50505050509050919050565b60135460ff1681565b60055433600160a060020a0390811691161461128457600080fd5b67ffffffffffffffff16601055565b600081815260016020526040812054600160a060020a03168015156112b757600080fd5b92915050565b600160a060020a031660009081526003602052604090205490565b60095481565b60008060006112eb612819565b6000868152600e60205260408120805482919067ffffffffffffffff891690811061131257fe5b60009182526020918290206004909102018054600280830154600384018054939b5062ffffff8083169b50630100000090920490911698509294509192600019600183161561010002019091169190910490601f820181900481020160405190810160405280929190818152602001828054600181600116156101000203166002900480156113e25780601f106113b7576101008083540402835291602001916113e2565b820191906000526020600020905b8154815290600101906020018083116113c557829003601f168201915b5050505050925080600101549150509295509295909350565b60055433600160a060020a0390811691161461141657600080fd5b6013805460ff19166001179055565b600554600160a060020a031681565b600f6020526000908152604090205481565b600b6020528160005260406000208181548110151561146157fe5b6000918252602090912001549150829050565b60135460009060ff161561148757600080fd5b600160a060020a03331660009081526012602052604090205460ff1615156001146114b157600080fd5b6000868152600a602052604090205433600160a060020a039081169116146114d857600080fd5b600086116114e557600080fd5b600062ffffff8516116114f757600080fd5b600780548790811061150557fe5b60009182526020909120600490910201600381015490915060ff161561152a57600080fd5b6003810154610100900460ff161561154157600080fd5b600381015462010000900460ff161561155957600080fd5b6115668686868686611f2c565b505050505050565b611576612819565b60408051908101604052600381527f415e3300000000000000000000000000000000000000000000000000000000006020820152919050565b60126020526000908152604090205460ff1681565b60055433600160a060020a039081169116146115df57600080fd5b600554600160a060020a0316ff5b600e6020528160005260406000208181548110151561160857fe5b6000918252602091829020600490910201805460018083015460028085015460038601805495995092975062ffffff80821697630100000090920416959492936000199084161561010002019092160490601f820181900481020160405190810160405280929190818152602001828054600181600116156101000203166002900480156116d75780601f106116ac576101008083540402835291602001916116d7565b820191906000526020600020905b8154815290600101906020018083116116ba57829003601f168201915b5050505050905085565b8033600160a060020a03166116f582611293565b600160a060020a03161461170857600080fd5b611713338484612038565b505050565b60055433600160a060020a0390811691161461173357600080fd5b6103e881111561174257600080fd5b600955565b60055433600160a060020a0390811691161461176257600080fd5b600160a060020a03166000908152601260205260409020805460ff19169055565b600080821161179157600080fd5b6000828152600a602052604090205433600160a060020a039081169116146117b857600080fd5b6000828152600d6020526040812054116117d157600080fd5b506000818152600d60205260408082208054929055600160a060020a0333169082156108fc0290839051600060405180830381858888f19350505050151561181857600080fd5b817fccf4374900bd722270142f35dcf4fc2e2b5a3c60ab03daccfa8d4dce0dfe738a8260405190815260200160405180910390a25050565b600554600090819033600160a060020a0390811691161461187057600080fd5b6000831161187d57600080fd5b600780548490811061188b57fe5b600091825260208220600490910201805473ffffffffffffffffffffffffffffffffffffffff19168155906118c3600183018261282b565b6118d160028301600061282b565b50600301805462ffffff191690556007805460019190859081106118f157fe5b6000918252602090912060036004909202010180549115156101000261ff001990921691909117905560055460078054600160a060020a03909216918590811061193757fe5b60009182526020808320600492909202909101805473ffffffffffffffffffffffffffffffffffffffff1916600160a060020a039490941693909317909255848152600e90915260408120925090505b81548110156119e057818181548110151561199e57fe5b6000918252602082206004909102018181556001810182905560028101805465ffffffffffff19169055906119d6600383018261282b565b5050600101611987565b7fa107a556b4445af6c76c3d1fb0861a3a6eba0a2d7cde2778425369de1d5a171b8360405190815260200160405180910390a1505050565b611a2233826120fe565b1515611a2d57600080fd5b611a40611a3982611293565b3383612038565b50565b600d6020526000908152604090205481565b60115481565b600a60205260009081526040902054600160a060020a031681565b60135460009081908190819060ff1615611a8f57600080fd5b600780546fffffffffffffffffffffffffffffffff8816908110611aaf57fe5b6000918252602090912060036004909202019081015490935060ff161515600114611ad957600080fd5b6003830154610100900460ff1615611af057600080fd5b6fffffffffffffffffffffffffffffffff86166000908152600e60205260409020805486908110611b1d57fe5b6000918252602082206004919091020160028101549093506301000000900462ffffff1611611b4b57600080fd5b600182015415611b655760018201543414611b6557600080fd5b5060028101546fffffffffffffffffffffffffffffffff86166000818152600d60205260409020805434908101909155601180548201905562ffffff63010000008404811693169290920360010191610d789190879084903390612124565b600080600080600080600887815481101515611bdc57fe5b60009182526020909120600490910201805460018201546002830154600390930154919a90995062ffffff740100000000000000000000000000000000000000008404169850600160a060020a039092169650945092505050565b6000908152600d602052604090205490565b60055433600160a060020a03908116911614611c6457600080fd5b600160a060020a0381161515611c7957600080fd5b600554600160a060020a0380831691167f8be0079c531659141344cd1fd0a4f28419497f9722a3daafe3b4186f6b6457e060405160405180910390a36005805473ffffffffffffffffffffffffffffffffffffffff1916600160a060020a0392909216919091179055565b601354600090819060ff1615611cf957600080fd5b600160a060020a03331660009081526012602052604090205460ff161515600114611d2357600080fd5b6010543414611d3157600080fd5b611d3c3385856122be565b6010546000828152600d6020526040902080549091019055949350505050565b600160a060020a0382166000908152600b60205260408120805483908110611d8057fe5b906000526020600020900154905092915050565b6000611d9e61286f565b600060a06040519081016040908152888252602080830187905262ffffff891682840181905260608401526080830188905260008a8152600e9091522080549193509060018101611def83826128ae565b600092835260209092208491600402018151815560208201518160010155604082015160028201805462ffffff191662ffffff9290921691909117905560608201518160020160036101000a81548162ffffff021916908362ffffff160217905550608082015181600301908051611e6b9291602001906128da565b5050506000888152600f6020526040908190208054600101905590915087907fbcc78462243df19ab0f6e9bff38bc47cc381cc4600d2e33e08232d5f78e0e8939087905160208082528190810183818151815260200191508051906020019080838360005b83811015611ee8578082015183820152602001611ed0565b50505050905090810190601f168015611f155780820380516001836020036101000a031916815260200191505b509250505060405180910390a29695505050505050565b6000858152600f60205260409020548410611f4357fe5b6000858152600e60205260409020805484919086908110611f6057fe5b906000526020600020906004020160020160006101000a81548162ffffff021916908362ffffff16021790555081600e600087815260200190815260200160002085815481101515611fae57fe5b9060005260206000209060040201600301908051611fd09291602001906128da565b506000858152600e60205260409020805482919086908110611fee57fe5b90600052602060002090600402016001018190555083857f786c7e740ad4b9cbb9643a5316ead4cfa380c3536634f463e35dd5e43bdc79d660405160405180910390a35050505050565b600160a060020a038216151561204d57600080fd5b61205681611293565b600160a060020a038381169116141561206e57600080fd5b82600160a060020a031661208182611293565b600160a060020a03161461209457600080fd5b61209e83826124c1565b6120a88382612553565b6120b282826126ca565b81600160a060020a031683600160a060020a03167fddf252ad1be2c89b69c2b068fc378daa952ba7f163c4a11628f55a4df523b3ef8360405190815260200160405180910390a3505050565b600082600160a060020a031661211383610e5b565b600160a060020a0316149392505050565b600061212e612958565b600060a060405190810160409081528982526020808301879052600160a060020a0388168284015262ffffff89166060840152608083018a905260008b8152600e9091522080549193506001918990811061218557fe5b60009182526020909120600260049092020101805462ffffff6301000000808304821694909403169092027fffffffffffffffffffffffffffffffffffffffffffffffffffff000000ffffff90921691909117905560088054600181016121ec8382612986565b600092835260209092208491600402018151815560208201518160010155604082015160028201805473ffffffffffffffffffffffffffffffffffffffff1916600160a060020a039290921691909117905560608201518160020160146101000a81548162ffffff021916908362ffffff160217905550608082015181600301555050905061227b858261278f565b84600160a060020a031687897f3ffd4886872bbfb79239c94b42e59f56b5e810f72259627f1af658ccc35bc8fb60405160405180910390a4979650505050505050565b60006122c86129b2565b600060c06040519081016040908152600160a060020a03881682526020820187905281018590526000606082018190526080820181905260a08201526007805491935060019180830161231b83826129f5565b600092835260209092208591600402018151815473ffffffffffffffffffffffffffffffffffffffff1916600160a060020a039190911617815560208201518160010190805161236f9291602001906128da565b5060408201518160020190805161238a9291602001906128da565b50606082015160038201805460ff191691151591909117905560808201516003820180549115156101000261ff001990921691909117905560a08201516003909101805491151562010000027fffffffffffffffffffffffffffffffffffffffffffffffffffffffffff00ffff90921691909117905550036000818152600a602090815260408083208054600160a060020a038c1673ffffffffffffffffffffffffffffffffffffffff1990911681179091558352600b90915290208054919250906001810161245a8382612a21565b506000918252602080832091909101839055600160a060020a038816808352600c9091526040918290208054600101905582917f8947cb78db2ffa53132a4e627ea0e20920cf6edd68b7b07989687e1a28e0bac7905160405180910390a395945050505050565b81600160a060020a03166124d482611293565b600160a060020a0316146124e757600080fd5b600081815260026020526040808220805473ffffffffffffffffffffffffffffffffffffffff19169055600160a060020a038416907f8c5be1e5ebec7d5bd14f71427d1e84f3dd0314c0f7b2291e5b200ac8c7c3b9259084905190815260200160405180910390a35050565b600080600084600160a060020a031661256b85611293565b600160a060020a03161461257e57600080fd5b60008481526004602052604090205492506125a9600161259d876112bd565b9063ffffffff6127f116565b600160a060020a0386166000908152600360205260409020805491935090839081106125d157fe5b6000918252602080832090910154868352600182526040808420805473ffffffffffffffffffffffffffffffffffffffff19169055600160a060020a038916845260039092529120805491925082918590811061262a57fe5b6000918252602080832090910192909255600160a060020a038716815260039091526040812080548490811061265c57fe5b6000918252602080832090910192909255600160a060020a0387168152600390915260409020805490612693906000198301612a21565b506000848152600460205260408082208290558282528120849055546126c090600163ffffffff6127f116565b6000555050505050565b600081815260016020526040812054600160a060020a0316156126ec57600080fd5b6000828152600160205260409020805473ffffffffffffffffffffffffffffffffffffffff1916600160a060020a038516179055612729836112bd565b600160a060020a0384166000908152600360205260409020805491925090600181016127558382612a21565b50600091825260208083209190910184905583825260049052604081208290555461278790600163ffffffff61280316565b600055505050565b600160a060020a03821615156127a457600080fd5b6127ae82826126ca565b81600160a060020a031660007fddf252ad1be2c89b69c2b068fc378daa952ba7f163c4a11628f55a4df523b3ef8360405190815260200160405180910390a35050565b6000828211156127fd57fe5b50900390565b60008282018381101561281257fe5b9392505050565b60206040519081016040526000815290565b50805460018160011615610100020316600290046000825580601f106128515750611a40565b601f016020900490600052602060002090810190611a409190612a41565b60a0604051908101604052806000815260200160008152602001600062ffffff168152602001600062ffffff1681526020016128a9612819565b905290565b815481835581811511611713576004028160040283600052602060002091820191016117139190612a5b565b828054600181600116156101000203166002900490600052602060002090601f016020900481019282601f1061291b57805160ff1916838001178555612948565b82800160010185558215612948579182015b8281111561294857825182559160200191906001019061292d565b50612954929150612a41565b5090565b60a0604051908101604090815260008083526020830181905290820181905260608201819052608082015290565b815481835581811511611713576004028160040283600052602060002091820191016117139190612a9c565b60c060405190810160405260008152602081016129cd612819565b81526020016129da612819565b81526000602082018190526040820181905260609091015290565b815481835581811511611713576004028160040283600052602060002091820191016117139190612aed565b815481835581811511611713576000838152602090206117139181019083015b610b2791905b808211156129545760008155600101612a47565b610b2791905b808211156129545760008082556001820181905560028201805465ffffffffffff19169055612a93600383018261282b565b50600401612a61565b610b2791905b80821115612954576000808255600182018190556002820180547fffffffffffffffffff00000000000000000000000000000000000000000000001690556003820155600401612aa2565b610b2791905b8082111561295457805473ffffffffffffffffffffffffffffffffffffffff191681556000612b25600183018261282b565b612b3360028301600061282b565b5060038101805462ffffff19169055600401612af35600a165627a7a723058201c050a7df36664289b730cf1ca55f53b67c526f2d2498e732bbf9824066f195c0029",
  "source": "pragma solidity ^0.4.19;\n\nimport \"./Fundraiser.sol\";\n\ncontract Core is Fundraiser {\n\n  uint256 public campaignEscrowAmount = 0;  // Required escrow to create a campaign. Default, zero\n  uint256 public totalRaised = 0;           // Total funds raised by the contract\n  mapping(address => bool) public campaignManagers; // Campaign Managers\n  bool public paused = false;\n\n  event ReadyCampaign(uint256 campaignId);    // Campaign owner has marked campaign ready for activation\n  event ActivateCampaign(uint256 campaignId); // Contract owner has marked campaign active\n  event VetoCampaign(uint256 campaignId);     // Contract owner has removed a campaign from the dapp\n\n  modifier isNotPaused() {\n    require(paused == false);\n    _;\n  }\n\n  modifier onlyManager() {\n    require(campaignManagers[msg.sender] == true);\n    _;\n  }\n\n  // Create a new campaign. Must include escrow amount in tx.\n  function createCampaign(\n    string _campaignName,\n    string _taxid\n  )\n    public\n    payable\n    isNotPaused\n    onlyManager\n    returns (uint256)\n  {\n    require(msg.value == campaignEscrowAmount);\n\n    uint256 campaignId = _createCampaign(msg.sender, _campaignName, _taxid);\n    campaignBalance[campaignId] += campaignEscrowAmount;\n    return campaignId;\n  }\n  // Add a certificate to an existing campaign. Must be the campaign owner. Returns the new certificate index.\n  function createCertificate(\n    uint32 _campaignId,\n    uint24 _supply,\n    string _name,\n    uint104 _price\n  ) public\n    isNotPaused\n    onlyManager\n    returns (uint256)\n  {\n    require(campaignIndexToOwner[_campaignId] == msg.sender);\n    require(_campaignId > 0);\n    require(_supply > 0);\n\n    Campaign storage campaign = campaigns[_campaignId];\n\n    require(campaign.active == false);\n    require(campaign.veto == false);\n    require(campaign.ready == false);\n\n    return _createCertificate(_campaignId, _supply, _name, _price);\n  }\n  // Change the values of an existing certificate. Campaign cannot be active. Must be campaign owner.\n  function updateCertificate(\n    uint256 _campaignId,\n    uint256 _certificateIdx,\n    uint24 _supply,\n    string _name,\n    uint256 _price\n  )\n    public\n    isNotPaused\n    onlyManager\n  {\n    require(campaignIndexToOwner[_campaignId] == msg.sender);\n    require(_campaignId > 0);\n    require(_supply > 0);\n\n    Campaign storage campaign = campaigns[_campaignId];\n\n    require(campaign.active == false);\n    require(campaign.veto == false);\n    require(campaign.ready == false);\n\n    return _updateCertificate(_campaignId, _certificateIdx, _supply, _name, _price);\n  }\n  // Make a donation and issue the ERC-721 token for a campaign & certificate. Must include certificate price in tx.\n  function createToken(\n    uint128 _campaignId,\n    uint256 _certificateIdx\n  )\n    public\n    payable\n    isNotPaused\n    returns (uint)\n  {\n    Campaign storage campaign = campaigns[_campaignId];\n\n    // Campaign is valid & active\n    require(campaign.active == true);\n    require(campaign.veto == false);\n\n    // Ensure Token is still for sale\n    Certificate storage certificate = campaignCertificates[_campaignId][_certificateIdx];\n\n    require(certificate.remaining > 0);\n\n    if (certificate.price != 0) {\n      require(msg.value == certificate.price);\n    }\n\n    uint24 unitNumber = certificate.supply - certificate.remaining + 1;\n\n    campaignBalance[_campaignId] += msg.value;\n    totalRaised += msg.value;\n\n    return _createToken(_campaignId, _certificateIdx, unitNumber, msg.sender, msg.value);\n  }\n\n  // Campaign owner marks their campaign ready for activation\n  function readyCampaign(uint256 _campaignId) public onlyManager {\n    require(_campaignId > 0);\n    require(campaignIndexToOwner[_campaignId] == msg.sender);\n\n    campaigns[_campaignId].ready = true;\n\n    ReadyCampaign(_campaignId);\n  }\n\n  // Contract owner marks a campaign active.\n  function activateCampaign(uint256 _campaignId) public onlyOwner {\n    require(_campaignId > 0);\n    require(campaigns[_campaignId].active == false);\n    require(campaigns[_campaignId].veto == false);\n    require(campaignCertificates[_campaignId].length > 0);\n\n    campaigns[_campaignId].active = true;\n\n    ActivateCampaign(_campaignId);\n  }\n\n  // Contract owner removes a campaign\n  // Certs capped in Fundraiser\n  function vetoCampaign(uint256 _campaignId) public onlyOwner  {\n    require(_campaignId > 0);\n    delete campaigns[_campaignId];\n    campaigns[_campaignId].veto = true;\n    campaigns[_campaignId].owner = owner;\n\n    Certificate[] storage certificates = campaignCertificates[_campaignId];\n    for (uint256 i = 0; i < certificates.length; i++) {\n      delete certificates[i];\n    }\n    VetoCampaign(_campaignId);\n  }\n\n  // Contract owner changes the amount required to start a campaign\n  function changeEscrowAmount(uint64 _campaignEscrowAmount) public onlyOwner {\n    campaignEscrowAmount = _campaignEscrowAmount;\n  }\n\n  function pause() public onlyOwner {\n    paused = true;\n  }\n\n  function unpause() public onlyOwner {\n    paused = false;\n  }\n\n  function addManager(address manager) public onlyOwner {\n    campaignManagers[manager] = true;\n  }\n\n  function removeManager(address manager) public onlyOwner {\n    campaignManagers[manager] = false;\n  }\n\n  // Contract does not accept funds but funds can be forced.\n  function selfDestruct() public onlyOwner {\n    selfdestruct(owner);\n  }\n}",
  "sourcePath": "/home/hayek/proj/heritage/contracts/dapp/Core.sol",
  "compiler": {
    "name": "solc",
    "version": "0.4.21+commit.dfe3193c.Emscripten.clang"
  },
  "schemaVersion": "2.0.0",
  "updatedAt": "2018-06-04T18:20:45.937Z"
}