{
  "contractName": "ERC721TokenMock",
  "abi": [
    {
      "constant": true,
      "inputs": [],
      "name": "name",
      "outputs": [
        {
          "name": "_name",
          "type": "string"
        }
      ],
      "payable": false,
      "stateMutability": "pure",
      "type": "function"
    },
    {
      "constant": false,
      "inputs": [
        {
          "name": "_to",
          "type": "address"
        },
        {
          "name": "_tokenId",
          "type": "uint256"
        }
      ],
      "name": "approve",
      "outputs": [],
      "payable": false,
      "stateMutability": "nonpayable",
      "type": "function"
    },
    {
      "constant": true,
      "inputs": [],
      "name": "totalSupply",
      "outputs": [
        {
          "name": "",
          "type": "uint256"
        }
      ],
      "payable": false,
      "stateMutability": "view",
      "type": "function"
    },
    {
      "constant": true,
      "inputs": [
        {
          "name": "_tokenId",
          "type": "uint256"
        }
      ],
      "name": "approvedFor",
      "outputs": [
        {
          "name": "",
          "type": "address"
        }
      ],
      "payable": false,
      "stateMutability": "view",
      "type": "function"
    },
    {
      "constant": true,
      "inputs": [
        {
          "name": "_owner",
          "type": "address"
        }
      ],
      "name": "tokensOf",
      "outputs": [
        {
          "name": "",
          "type": "uint256[]"
        }
      ],
      "payable": false,
      "stateMutability": "view",
      "type": "function"
    },
    {
      "constant": true,
      "inputs": [
        {
          "name": "_tokenId",
          "type": "uint256"
        }
      ],
      "name": "ownerOf",
      "outputs": [
        {
          "name": "",
          "type": "address"
        }
      ],
      "payable": false,
      "stateMutability": "view",
      "type": "function"
    },
    {
      "constant": true,
      "inputs": [
        {
          "name": "_owner",
          "type": "address"
        }
      ],
      "name": "balanceOf",
      "outputs": [
        {
          "name": "",
          "type": "uint256"
        }
      ],
      "payable": false,
      "stateMutability": "view",
      "type": "function"
    },
    {
      "constant": true,
      "inputs": [],
      "name": "symbol",
      "outputs": [
        {
          "name": "_symbol",
          "type": "string"
        }
      ],
      "payable": false,
      "stateMutability": "pure",
      "type": "function"
    },
    {
      "constant": false,
      "inputs": [
        {
          "name": "_to",
          "type": "address"
        },
        {
          "name": "_tokenId",
          "type": "uint256"
        }
      ],
      "name": "transfer",
      "outputs": [],
      "payable": false,
      "stateMutability": "nonpayable",
      "type": "function"
    },
    {
      "constant": false,
      "inputs": [
        {
          "name": "_tokenId",
          "type": "uint256"
        }
      ],
      "name": "takeOwnership",
      "outputs": [],
      "payable": false,
      "stateMutability": "nonpayable",
      "type": "function"
    },
    {
      "inputs": [],
      "payable": false,
      "stateMutability": "nonpayable",
      "type": "constructor"
    },
    {
      "anonymous": false,
      "inputs": [
        {
          "indexed": true,
          "name": "_from",
          "type": "address"
        },
        {
          "indexed": true,
          "name": "_to",
          "type": "address"
        },
        {
          "indexed": false,
          "name": "_tokenId",
          "type": "uint256"
        }
      ],
      "name": "Transfer",
      "type": "event"
    },
    {
      "anonymous": false,
      "inputs": [
        {
          "indexed": true,
          "name": "_owner",
          "type": "address"
        },
        {
          "indexed": true,
          "name": "_approved",
          "type": "address"
        },
        {
          "indexed": false,
          "name": "_tokenId",
          "type": "uint256"
        }
      ],
      "name": "Approval",
      "type": "event"
    },
    {
      "constant": false,
      "inputs": [
        {
          "name": "_to",
          "type": "address"
        },
        {
          "name": "_tokenId",
          "type": "uint256"
        }
      ],
      "name": "mint",
      "outputs": [],
      "payable": false,
      "stateMutability": "nonpayable",
      "type": "function"
    },
    {
      "constant": false,
      "inputs": [
        {
          "name": "_tokenId",
          "type": "uint256"
        }
      ],
      "name": "burn",
      "outputs": [],
      "payable": false,
      "stateMutability": "nonpayable",
      "type": "function"
    }
  ],
  "bytecode": "0x6060604052341561000f57600080fd5b610d7f8061001e6000396000f3006060604052600436106100b95763ffffffff7c010000000000000000000000000000000000000000000000000000000060003504166306fdde0381146100be578063095ea7b31461014857806318160ddd146101795780632a6dd48f1461019e57806340c10f19146101dd57806342966c681461020c5780635a3f2672146102225780636352211e146102a157806370a08231146102b757806395d89b41146102e3578063a9059cbb146102f6578063b2e6ceeb14610325575b600080fd5b34156100c957600080fd5b6100d161033b565b60405160208082528190810183818151815260200191508051906020019080838360005b8381101561010d5780820151838201526020016100f5565b50505050905090810190601f16801561013a5780820380516001836020036101000a031916815260200191505b509250505060405180910390f35b341561015357600080fd5b61017773ffffffffffffffffffffffffffffffffffffffff6004351660243561037c565b005b341561018457600080fd5b61018c6104bc565b60405190815260200160405180910390f35b34156101a957600080fd5b6101b46004356104c3565b60405173ffffffffffffffffffffffffffffffffffffffff909116815260200160405180910390f35b34156101e857600080fd5b61017773ffffffffffffffffffffffffffffffffffffffff600435166024356104eb565b341561021757600080fd5b6101776004356104f9565b341561022d57600080fd5b61024e73ffffffffffffffffffffffffffffffffffffffff60043516610505565b60405160208082528190810183818151815260200191508051906020019060200280838360005b8381101561028d578082015183820152602001610275565b505050509050019250505060405180910390f35b34156102ac57600080fd5b6101b46004356105a2565b34156102c257600080fd5b61018c73ffffffffffffffffffffffffffffffffffffffff600435166105d9565b34156102ee57600080fd5b6100d1610601565b341561030157600080fd5b61017773ffffffffffffffffffffffffffffffffffffffff60043516602435610642565b341561033057600080fd5b610177600435610693565b610343610d04565b60408051908101604052600881527f48657269746167650000000000000000000000000000000000000000000000006020820152919050565b6000813373ffffffffffffffffffffffffffffffffffffffff1661039f826105a2565b73ffffffffffffffffffffffffffffffffffffffff16146103bf57600080fd5b6103c8836105a2565b915073ffffffffffffffffffffffffffffffffffffffff84811690831614156103f057600080fd5b6103f9836104c3565b73ffffffffffffffffffffffffffffffffffffffff16151580610431575073ffffffffffffffffffffffffffffffffffffffff841615155b156104b65760008381526002602052604090819020805473ffffffffffffffffffffffffffffffffffffffff191673ffffffffffffffffffffffffffffffffffffffff87811691821790925591908416907f8c5be1e5ebec7d5bd14f71427d1e84f3dd0314c0f7b2291e5b200ac8c7c3b9259086905190815260200160405180910390a35b50505050565b6000545b90565b60009081526002602052604090205473ffffffffffffffffffffffffffffffffffffffff1690565b6104f582826106bb565b5050565b61050281610737565b50565b61050d610d04565b600360008373ffffffffffffffffffffffffffffffffffffffff1673ffffffffffffffffffffffffffffffffffffffff16815260200190815260200160002080548060200260200160405190810160405280929190818152602001828054801561059657602002820191906000526020600020905b815481526020019060010190808311610582575b50505050509050919050565b60008181526001602052604081205473ffffffffffffffffffffffffffffffffffffffff168015156105d357600080fd5b92915050565b73ffffffffffffffffffffffffffffffffffffffff1660009081526003602052604090205490565b610609610d04565b60408051908101604052600381527f415e3300000000000000000000000000000000000000000000000000000000006020820152919050565b803373ffffffffffffffffffffffffffffffffffffffff16610663826105a2565b73ffffffffffffffffffffffffffffffffffffffff161461068357600080fd5b61068e338484610800565b505050565b61069d3382610914565b15156106a857600080fd5b6105026106b4826105a2565b3383610800565b73ffffffffffffffffffffffffffffffffffffffff821615156106dd57600080fd5b6106e78282610954565b8173ffffffffffffffffffffffffffffffffffffffff1660007fddf252ad1be2c89b69c2b068fc378daa952ba7f163c4a11628f55a4df523b3ef8360405190815260200160405180910390a35050565b803373ffffffffffffffffffffffffffffffffffffffff16610758826105a2565b73ffffffffffffffffffffffffffffffffffffffff161461077857600080fd5b610781826104c3565b73ffffffffffffffffffffffffffffffffffffffff16156107a6576107a63383610a40565b6107b03383610af9565b60003373ffffffffffffffffffffffffffffffffffffffff167fddf252ad1be2c89b69c2b068fc378daa952ba7f163c4a11628f55a4df523b3ef8460405190815260200160405180910390a35050565b73ffffffffffffffffffffffffffffffffffffffff8216151561082257600080fd5b61082b816105a2565b73ffffffffffffffffffffffffffffffffffffffff8381169116141561085057600080fd5b8273ffffffffffffffffffffffffffffffffffffffff16610870826105a2565b73ffffffffffffffffffffffffffffffffffffffff161461089057600080fd5b61089a8382610a40565b6108a48382610af9565b6108ae8282610954565b8173ffffffffffffffffffffffffffffffffffffffff168373ffffffffffffffffffffffffffffffffffffffff167fddf252ad1be2c89b69c2b068fc378daa952ba7f163c4a11628f55a4df523b3ef8360405190815260200160405180910390a3505050565b60008273ffffffffffffffffffffffffffffffffffffffff16610936836104c3565b73ffffffffffffffffffffffffffffffffffffffff16149392505050565b60008181526001602052604081205473ffffffffffffffffffffffffffffffffffffffff161561098357600080fd5b6000828152600160205260409020805473ffffffffffffffffffffffffffffffffffffffff191673ffffffffffffffffffffffffffffffffffffffff85161790556109cd836105d9565b73ffffffffffffffffffffffffffffffffffffffff8416600090815260036020526040902080549192509060018101610a068382610d16565b506000918252602080832091909101849055838252600490526040812082905554610a3890600163ffffffff610cdc16565b600055505050565b8173ffffffffffffffffffffffffffffffffffffffff16610a60826105a2565b73ffffffffffffffffffffffffffffffffffffffff1614610a8057600080fd5b600081815260026020526040808220805473ffffffffffffffffffffffffffffffffffffffff1916905573ffffffffffffffffffffffffffffffffffffffff8416907f8c5be1e5ebec7d5bd14f71427d1e84f3dd0314c0f7b2291e5b200ac8c7c3b9259084905190815260200160405180910390a35050565b60008060008473ffffffffffffffffffffffffffffffffffffffff16610b1e856105a2565b73ffffffffffffffffffffffffffffffffffffffff1614610b3e57600080fd5b6000848152600460205260409020549250610b696001610b5d876105d9565b9063ffffffff610cf216565b73ffffffffffffffffffffffffffffffffffffffff8616600090815260036020526040902080549193509083908110610b9e57fe5b6000918252602080832090910154868352600182526040808420805473ffffffffffffffffffffffffffffffffffffffff1916905573ffffffffffffffffffffffffffffffffffffffff89168452600390925291208054919250829185908110610c0457fe5b600091825260208083209091019290925573ffffffffffffffffffffffffffffffffffffffff87168152600390915260408120805484908110610c4357fe5b600091825260208083209091019290925573ffffffffffffffffffffffffffffffffffffffff87168152600390915260409020805490610ca5907fffffffffffffffffffffffffffffffffffffffffffffffffffffffffffffffff8301610d16565b50600084815260046020526040808220829055828252812084905554610cd290600163ffffffff610cf216565b6000555050505050565b600082820183811015610ceb57fe5b9392505050565b600082821115610cfe57fe5b50900390565b60206040519081016040526000815290565b81548183558181151161068e5760008381526020902061068e9181019083016104c091905b80821115610d4f5760008155600101610d3b565b50905600a165627a7a723058200a8ad875b8084c21f8eb1f54fecda861bc5c7feda58f3036d2addd68c63d214f0029",
  "source": "pragma solidity ^0.4.18;\n\nimport \"../dapp/Asset.sol\";\n\n/**\n * @title ERC721TokenMock\n * This mock just provides a public mint and burn functions for testing purposes.\n */\ncontract ERC721TokenMock is Asset {\n  function ERC721TokenMock() ERC721Token() public { }\n\n  function mint(address _to, uint256 _tokenId) public {\n    super._mint(_to, _tokenId);\n  }\n\n  function burn(uint256 _tokenId) public {\n    super._burn(_tokenId);\n  }\n}",
  "sourcePath": "/home/hayek/proj/heritage/contracts/mocks/ERC721.mock.sol",
  "compiler": {
    "name": "solc",
    "version": "0.4.21+commit.dfe3193c.Emscripten.clang"
  },
  "schemaVersion": "2.0.0",
  "updatedAt": "2018-05-29T02:04:35.402Z"
}