{
  "contractName": "Fundraiser",
  "abi": [
    {
      "constant": true,
      "inputs": [],
      "name": "name",
      "outputs": [
        {
          "name": "_name",
          "type": "string"
        }
      ],
      "payable": false,
      "stateMutability": "pure",
      "type": "function"
    },
    {
      "constant": false,
      "inputs": [
        {
          "name": "_to",
          "type": "address"
        },
        {
          "name": "_tokenId",
          "type": "uint256"
        }
      ],
      "name": "approve",
      "outputs": [],
      "payable": false,
      "stateMutability": "nonpayable",
      "type": "function"
    },
    {
      "constant": true,
      "inputs": [],
      "name": "totalSupply",
      "outputs": [
        {
          "name": "",
          "type": "uint256"
        }
      ],
      "payable": false,
      "stateMutability": "view",
      "type": "function"
    },
    {
      "constant": true,
      "inputs": [
        {
          "name": "_tokenId",
          "type": "uint256"
        }
      ],
      "name": "approvedFor",
      "outputs": [
        {
          "name": "",
          "type": "address"
        }
      ],
      "payable": false,
      "stateMutability": "view",
      "type": "function"
    },
    {
      "constant": true,
      "inputs": [
        {
          "name": "",
          "type": "address"
        }
      ],
      "name": "campaignOwnerTotalCampaigns",
      "outputs": [
        {
          "name": "",
          "type": "uint256"
        }
      ],
      "payable": false,
      "stateMutability": "view",
      "type": "function"
    },
    {
      "constant": true,
      "inputs": [],
      "name": "founderAddress",
      "outputs": [
        {
          "name": "",
          "type": "address"
        }
      ],
      "payable": false,
      "stateMutability": "view",
      "type": "function"
    },
    {
      "constant": true,
      "inputs": [
        {
          "name": "_owner",
          "type": "address"
        }
      ],
      "name": "tokensOf",
      "outputs": [
        {
          "name": "",
          "type": "uint256[]"
        }
      ],
      "payable": false,
      "stateMutability": "view",
      "type": "function"
    },
    {
      "constant": true,
      "inputs": [
        {
          "name": "_tokenId",
          "type": "uint256"
        }
      ],
      "name": "ownerOf",
      "outputs": [
        {
          "name": "",
          "type": "address"
        }
      ],
      "payable": false,
      "stateMutability": "view",
      "type": "function"
    },
    {
      "constant": true,
      "inputs": [
        {
          "name": "_owner",
          "type": "address"
        }
      ],
      "name": "balanceOf",
      "outputs": [
        {
          "name": "",
          "type": "uint256"
        }
      ],
      "payable": false,
      "stateMutability": "view",
      "type": "function"
    },
    {
      "constant": true,
      "inputs": [],
      "name": "maxCertificates",
      "outputs": [
        {
          "name": "",
          "type": "uint256"
        }
      ],
      "payable": false,
      "stateMutability": "view",
      "type": "function"
    },
    {
      "constant": true,
      "inputs": [],
      "name": "owner",
      "outputs": [
        {
          "name": "",
          "type": "address"
        }
      ],
      "payable": false,
      "stateMutability": "view",
      "type": "function"
    },
    {
      "constant": true,
      "inputs": [
        {
          "name": "",
          "type": "uint256"
        }
      ],
      "name": "campaignCertificateCount",
      "outputs": [
        {
          "name": "",
          "type": "uint256"
        }
      ],
      "payable": false,
      "stateMutability": "view",
      "type": "function"
    },
    {
      "constant": true,
      "inputs": [
        {
          "name": "",
          "type": "address"
        },
        {
          "name": "",
          "type": "uint256"
        }
      ],
      "name": "campaignOwnerToIndexes",
      "outputs": [
        {
          "name": "",
          "type": "uint256"
        }
      ],
      "payable": false,
      "stateMutability": "view",
      "type": "function"
    },
    {
      "constant": true,
      "inputs": [],
      "name": "symbol",
      "outputs": [
        {
          "name": "_symbol",
          "type": "string"
        }
      ],
      "payable": false,
      "stateMutability": "pure",
      "type": "function"
    },
    {
      "constant": true,
      "inputs": [
        {
          "name": "",
          "type": "uint256"
        },
        {
          "name": "",
          "type": "uint256"
        }
      ],
      "name": "campaignCertificates",
      "outputs": [
        {
          "name": "campaignId",
          "type": "uint256"
        },
        {
          "name": "price",
          "type": "uint256"
        },
        {
          "name": "supply",
          "type": "uint24"
        },
        {
          "name": "remaining",
          "type": "uint24"
        },
        {
          "name": "name",
          "type": "string"
        }
      ],
      "payable": false,
      "stateMutability": "view",
      "type": "function"
    },
    {
      "constant": false,
      "inputs": [
        {
          "name": "_to",
          "type": "address"
        },
        {
          "name": "_tokenId",
          "type": "uint256"
        }
      ],
      "name": "transfer",
      "outputs": [],
      "payable": false,
      "stateMutability": "nonpayable",
      "type": "function"
    },
    {
      "constant": false,
      "inputs": [
        {
          "name": "_tokenId",
          "type": "uint256"
        }
      ],
      "name": "takeOwnership",
      "outputs": [],
      "payable": false,
      "stateMutability": "nonpayable",
      "type": "function"
    },
    {
      "constant": true,
      "inputs": [
        {
          "name": "",
          "type": "uint256"
        }
      ],
      "name": "campaignBalance",
      "outputs": [
        {
          "name": "",
          "type": "uint256"
        }
      ],
      "payable": false,
      "stateMutability": "view",
      "type": "function"
    },
    {
      "constant": true,
      "inputs": [
        {
          "name": "",
          "type": "uint256"
        }
      ],
      "name": "campaignIndexToOwner",
      "outputs": [
        {
          "name": "",
          "type": "address"
        }
      ],
      "payable": false,
      "stateMutability": "view",
      "type": "function"
    },
    {
      "constant": false,
      "inputs": [
        {
          "name": "newOwner",
          "type": "address"
        }
      ],
      "name": "transferOwnership",
      "outputs": [],
      "payable": false,
      "stateMutability": "nonpayable",
      "type": "function"
    },
    {
      "anonymous": false,
      "inputs": [
        {
          "indexed": true,
          "name": "owner",
          "type": "address"
        },
        {
          "indexed": true,
          "name": "campaignId",
          "type": "uint256"
        }
      ],
      "name": "CreateCampaign",
      "type": "event"
    },
    {
      "anonymous": false,
      "inputs": [
        {
          "indexed": true,
          "name": "campaignId",
          "type": "uint256"
        },
        {
          "indexed": false,
          "name": "name",
          "type": "string"
        }
      ],
      "name": "CreateCertificate",
      "type": "event"
    },
    {
      "anonymous": false,
      "inputs": [
        {
          "indexed": true,
          "name": "campaignId",
          "type": "uint256"
        },
        {
          "indexed": true,
          "name": "certificateIdx",
          "type": "uint256"
        }
      ],
      "name": "UpdateCertificate",
      "type": "event"
    },
    {
      "anonymous": false,
      "inputs": [
        {
          "indexed": true,
          "name": "campaignId",
          "type": "uint256"
        },
        {
          "indexed": true,
          "name": "certificateIdx",
          "type": "uint256"
        },
        {
          "indexed": true,
          "name": "owner",
          "type": "address"
        }
      ],
      "name": "CreateToken",
      "type": "event"
    },
    {
      "anonymous": false,
      "inputs": [
        {
          "indexed": true,
          "name": "campaignId",
          "type": "uint256"
        },
        {
          "indexed": false,
          "name": "balance",
          "type": "uint256"
        }
      ],
      "name": "WithdrawBalance",
      "type": "event"
    },
    {
      "anonymous": false,
      "inputs": [
        {
          "indexed": true,
          "name": "previousOwner",
          "type": "address"
        },
        {
          "indexed": true,
          "name": "newOwner",
          "type": "address"
        }
      ],
      "name": "OwnershipTransferred",
      "type": "event"
    },
    {
      "anonymous": false,
      "inputs": [
        {
          "indexed": true,
          "name": "_from",
          "type": "address"
        },
        {
          "indexed": true,
          "name": "_to",
          "type": "address"
        },
        {
          "indexed": false,
          "name": "_tokenId",
          "type": "uint256"
        }
      ],
      "name": "Transfer",
      "type": "event"
    },
    {
      "anonymous": false,
      "inputs": [
        {
          "indexed": true,
          "name": "_owner",
          "type": "address"
        },
        {
          "indexed": true,
          "name": "_approved",
          "type": "address"
        },
        {
          "indexed": false,
          "name": "_tokenId",
          "type": "uint256"
        }
      ],
      "name": "Approval",
      "type": "event"
    },
    {
      "constant": false,
      "inputs": [
        {
          "name": "_campaignId",
          "type": "uint256"
        }
      ],
      "name": "withdrawCampaignBalance",
      "outputs": [],
      "payable": false,
      "stateMutability": "nonpayable",
      "type": "function"
    },
    {
      "constant": false,
      "inputs": [
        {
          "name": "_maxCertificates",
          "type": "uint256"
        }
      ],
      "name": "changeMaxCertificates",
      "outputs": [],
      "payable": false,
      "stateMutability": "nonpayable",
      "type": "function"
    },
    {
      "constant": true,
      "inputs": [
        {
          "name": "_id",
          "type": "uint256"
        }
      ],
      "name": "getCampaign",
      "outputs": [
        {
          "name": "owner",
          "type": "address"
        },
        {
          "name": "campaignName",
          "type": "string"
        },
        {
          "name": "taxId",
          "type": "string"
        },
        {
          "name": "active",
          "type": "bool"
        },
        {
          "name": "veto",
          "type": "bool"
        },
        {
          "name": "ready",
          "type": "bool"
        }
      ],
      "payable": false,
      "stateMutability": "view",
      "type": "function"
    },
    {
      "constant": true,
      "inputs": [
        {
          "name": "_campaignId",
          "type": "uint256"
        },
        {
          "name": "_certificateIdx",
          "type": "uint64"
        }
      ],
      "name": "getCertificate",
      "outputs": [
        {
          "name": "campaignId",
          "type": "uint256"
        },
        {
          "name": "supply",
          "type": "uint24"
        },
        {
          "name": "remaining",
          "type": "uint24"
        },
        {
          "name": "name",
          "type": "string"
        },
        {
          "name": "price",
          "type": "uint256"
        }
      ],
      "payable": false,
      "stateMutability": "view",
      "type": "function"
    },
    {
      "constant": true,
      "inputs": [
        {
          "name": "_id",
          "type": "uint256"
        }
      ],
      "name": "getToken",
      "outputs": [
        {
          "name": "campaignId",
          "type": "uint256"
        },
        {
          "name": "value",
          "type": "uint256"
        },
        {
          "name": "unitNumber",
          "type": "uint24"
        },
        {
          "name": "purchaser",
          "type": "address"
        },
        {
          "name": "certificateIdx",
          "type": "uint256"
        }
      ],
      "payable": false,
      "stateMutability": "view",
      "type": "function"
    },
    {
      "constant": true,
      "inputs": [
        {
          "name": "_owner",
          "type": "address"
        }
      ],
      "name": "getTotalCampaignsForOwner",
      "outputs": [
        {
          "name": "total",
          "type": "uint256"
        }
      ],
      "payable": false,
      "stateMutability": "view",
      "type": "function"
    },
    {
      "constant": true,
      "inputs": [
        {
          "name": "_owner",
          "type": "address"
        },
        {
          "name": "_index",
          "type": "uint256"
        }
      ],
      "name": "getCampaignIdByOwnerIndex",
      "outputs": [
        {
          "name": "id",
          "type": "uint256"
        }
      ],
      "payable": false,
      "stateMutability": "view",
      "type": "function"
    },
    {
      "constant": true,
      "inputs": [],
      "name": "totalCampaigns",
      "outputs": [
        {
          "name": "",
          "type": "uint256"
        }
      ],
      "payable": false,
      "stateMutability": "view",
      "type": "function"
    },
    {
      "constant": true,
      "inputs": [
        {
          "name": "_campaignId",
          "type": "uint256"
        }
      ],
      "name": "getCampaignBalance",
      "outputs": [
        {
          "name": "",
          "type": "uint256"
        }
      ],
      "payable": false,
      "stateMutability": "view",
      "type": "function"
    }
  ],
  "bytecode": "0x6060604052606460095560058054600160a060020a03191633600160a060020a03161790556118a7806100336000396000f3006060604052600436106101745763ffffffff7c010000000000000000000000000000000000000000000000000000000060003504166302932f56811461017957806306fdde031461019e578063095ea7b31461022857806318160ddd146102595780632a6dd48f1461026c5780632d85ea12146102ab5780633da70bd5146102d757806346bb2833146103035780635598f8cc146103165780635a3f2672146104455780636352211e146104c457806370a08231146104da5780637204ca151461050657806381cdb4c3146105195780638da5cb5b146105d757806390722b75146105ea578063914175421461060057806395d89b411461062f578063a5f8777514610642578063a9059cbb146106b6578063a9cd4a1f146106e5578063ae18e083146106fb578063b2e6ceeb14610711578063bd6c67e914610727578063ced3c6ad1461073d578063e4b50cb814610753578063eb044b97146107d1578063f2fde38b146107e7578063fea62cae14610813575b600080fd5b341561018457600080fd5b61018c610842565b60405190815260200160405180910390f35b34156101a957600080fd5b6101b161084d565b60405160208082528190810183818151815260200191508051906020019080838360005b838110156101ed5780820151838201526020016101d5565b50505050905090810190601f16801561021a5780820380516001836020036101000a031916815260200191505b509250505060405180910390f35b341561023357600080fd5b61025773ffffffffffffffffffffffffffffffffffffffff6004351660243561088e565b005b341561026457600080fd5b61018c6109ce565b341561027757600080fd5b6102826004356109d4565b60405173ffffffffffffffffffffffffffffffffffffffff909116815260200160405180910390f35b34156102b657600080fd5b61018c73ffffffffffffffffffffffffffffffffffffffff600435166109fc565b34156102e257600080fd5b61018c73ffffffffffffffffffffffffffffffffffffffff60043516610a24565b341561030e57600080fd5b610282610a36565b341561032157600080fd5b61032c600435610a52565b60405173ffffffffffffffffffffffffffffffffffffffff871681528315156060820152821515608082015281151560a082015260c060208201818152906040830190830188818151815260200191508051906020019080838360005b838110156103a1578082015183820152602001610389565b50505050905090810190601f1680156103ce5780820380516001836020036101000a031916815260200191505b50838103825287818151815260200191508051906020019080838360005b838110156104045780820151838201526020016103ec565b50505050905090810190601f1680156104315780820380516001836020036101000a031916815260200191505b509850505050505050505060405180910390f35b341561045057600080fd5b61047173ffffffffffffffffffffffffffffffffffffffff60043516610c17565b60405160208082528190810183818151815260200191508051906020019060200280838360005b838110156104b0578082015183820152602001610498565b505050509050019250505060405180910390f35b34156104cf57600080fd5b610282600435610cb4565b34156104e557600080fd5b61018c73ffffffffffffffffffffffffffffffffffffffff60043516610ceb565b341561051157600080fd5b61018c610d13565b341561052457600080fd5b61053c60043567ffffffffffffffff60243516610d19565b60405185815262ffffff8086166020830152841660408201526080810182905260a06060820181815290820184818151815260200191508051906020019080838360005b83811015610598578082015183820152602001610580565b50505050905090810190601f1680156105c55780820380516001836020036101000a031916815260200191505b50965050505050505060405180910390f35b34156105e257600080fd5b610282610e36565b34156105f557600080fd5b61018c600435610e52565b341561060b57600080fd5b61018c73ffffffffffffffffffffffffffffffffffffffff60043516602435610e64565b341561063a57600080fd5b6101b1610e92565b341561064d57600080fd5b61065b600435602435610ed3565b6040518581526020810185905262ffffff80851660408301528316606082015260a060808201818152908201838181518152602001915080519060200190808383600083811015610598578082015183820152602001610580565b34156106c157600080fd5b61025773ffffffffffffffffffffffffffffffffffffffff60043516602435610fc7565b34156106f057600080fd5b610257600435611018565b341561070657600080fd5b610257600435611054565b341561071c57600080fd5b61025760043561113b565b341561073257600080fd5b61018c600435611166565b341561074857600080fd5b610282600435611178565b341561075e57600080fd5b6107696004356111a0565b604051808681526020018581526020018462ffffff1662ffffff1681526020018373ffffffffffffffffffffffffffffffffffffffff1673ffffffffffffffffffffffffffffffffffffffff1681526020018281526020019550505050505060405180910390f35b34156107dc57600080fd5b61018c600435611220565b34156107f257600080fd5b61025773ffffffffffffffffffffffffffffffffffffffff60043516611232565b341561081e57600080fd5b61018c73ffffffffffffffffffffffffffffffffffffffff60043516602435611301565b600754600019015b90565b61085561182c565b60408051908101604052600881527f48657269746167650000000000000000000000000000000000000000000000006020820152919050565b6000813373ffffffffffffffffffffffffffffffffffffffff166108b182610cb4565b73ffffffffffffffffffffffffffffffffffffffff16146108d157600080fd5b6108da83610cb4565b915073ffffffffffffffffffffffffffffffffffffffff848116908316141561090257600080fd5b61090b836109d4565b73ffffffffffffffffffffffffffffffffffffffff16151580610943575073ffffffffffffffffffffffffffffffffffffffff841615155b156109c85760008381526002602052604090819020805473ffffffffffffffffffffffffffffffffffffffff191673ffffffffffffffffffffffffffffffffffffffff87811691821790925591908416907f8c5be1e5ebec7d5bd14f71427d1e84f3dd0314c0f7b2291e5b200ac8c7c3b9259086905190815260200160405180910390a35b50505050565b60005490565b60009081526002602052604090205473ffffffffffffffffffffffffffffffffffffffff1690565b73ffffffffffffffffffffffffffffffffffffffff166000908152600c602052604090205490565b600c6020526000908152604090205481565b60065473ffffffffffffffffffffffffffffffffffffffff1681565b6000610a5c61182c565b610a6461182c565b600080600080600788815481101515610a7957fe5b906000526020600020906004020190508060000160009054906101000a900473ffffffffffffffffffffffffffffffffffffffff169650806001018054600181600116156101000203166002900480601f016020809104026020016040519081016040528092919081815260200182805460018160011615610100020316600290048015610b485780601f10610b1d57610100808354040283529160200191610b48565b820191906000526020600020905b815481529060010190602001808311610b2b57829003601f168201915b50505050509550806002018054600181600116156101000203166002900480601f016020809104026020016040519081016040528092919081815260200182805460018160011615610100020316600290048015610be75780601f10610bbc57610100808354040283529160200191610be7565b820191906000526020600020905b815481529060010190602001808311610bca57829003601f168201915b505050600390930154989a979950909760ff80821698610100830482169850620100009092041695509350505050565b610c1f61182c565b600360008373ffffffffffffffffffffffffffffffffffffffff1673ffffffffffffffffffffffffffffffffffffffff168152602001908152602001600020805480602002602001604051908101604052809291908181526020018280548015610ca857602002820191906000526020600020905b815481526020019060010190808311610c94575b50505050509050919050565b60008181526001602052604081205473ffffffffffffffffffffffffffffffffffffffff16801515610ce557600080fd5b92915050565b73ffffffffffffffffffffffffffffffffffffffff1660009081526003602052604090205490565b60095481565b6000806000610d2661182c565b6000868152600e60205260408120805482919067ffffffffffffffff8916908110610d4d57fe5b60009182526020918290206004909102018054600280830154600384018054939b5062ffffff8083169b50630100000090920490911698509294509192600019600183161561010002019091169190910490601f82018190048102016040519081016040528092919081815260200182805460018160011615610100020316600290048015610e1d5780601f10610df257610100808354040283529160200191610e1d565b820191906000526020600020905b815481529060010190602001808311610e0057829003601f168201915b5050505050925080600101549150509295509295909350565b60055473ffffffffffffffffffffffffffffffffffffffff1681565b600f6020526000908152604090205481565b600b60205281600052604060002081815481101515610e7f57fe5b6000918252602090912001549150829050565b610e9a61182c565b60408051908101604052600381527f415e3300000000000000000000000000000000000000000000000000000000006020820152919050565b600e60205281600052604060002081815481101515610eee57fe5b6000918252602091829020600490910201805460018083015460028085015460038601805495995092975062ffffff80821697630100000090920416959492936000199084161561010002019092160490601f82018190048102016040519081016040528092919081815260200182805460018160011615610100020316600290048015610fbd5780601f10610f9257610100808354040283529160200191610fbd565b820191906000526020600020905b815481529060010190602001808311610fa057829003601f168201915b5050505050905085565b803373ffffffffffffffffffffffffffffffffffffffff16610fe882610cb4565b73ffffffffffffffffffffffffffffffffffffffff161461100857600080fd5b611013338484611346565b505050565b6005543373ffffffffffffffffffffffffffffffffffffffff90811691161461104057600080fd5b6103e881111561104f57600080fd5b600955565b600080821161106257600080fd5b6000828152600a60205260409020543373ffffffffffffffffffffffffffffffffffffffff90811691161461109657600080fd5b6000828152600d6020526040812054116110af57600080fd5b506000818152600d6020526040808220805492905573ffffffffffffffffffffffffffffffffffffffff33169082156108fc0290839051600060405180830381858888f19350505050151561110357600080fd5b817fccf4374900bd722270142f35dcf4fc2e2b5a3c60ab03daccfa8d4dce0dfe738a8260405190815260200160405180910390a25050565b611145338261145a565b151561115057600080fd5b61116361115c82610cb4565b3383611346565b50565b600d6020526000908152604090205481565b600a6020526000908152604090205473ffffffffffffffffffffffffffffffffffffffff1681565b6000806000806000806008878154811015156111b857fe5b60009182526020909120600490910201805460018201546002830154600390930154919a90995062ffffff74010000000000000000000000000000000000000000840416985073ffffffffffffffffffffffffffffffffffffffff9092169650945092505050565b6000908152600d602052604090205490565b6005543373ffffffffffffffffffffffffffffffffffffffff90811691161461125a57600080fd5b73ffffffffffffffffffffffffffffffffffffffff8116151561127c57600080fd5b60055473ffffffffffffffffffffffffffffffffffffffff80831691167f8be0079c531659141344cd1fd0a4f28419497f9722a3daafe3b4186f6b6457e060405160405180910390a36005805473ffffffffffffffffffffffffffffffffffffffff191673ffffffffffffffffffffffffffffffffffffffff92909216919091179055565b73ffffffffffffffffffffffffffffffffffffffff82166000908152600b6020526040812080548390811061133257fe5b906000526020600020900154905092915050565b73ffffffffffffffffffffffffffffffffffffffff8216151561136857600080fd5b61137181610cb4565b73ffffffffffffffffffffffffffffffffffffffff8381169116141561139657600080fd5b8273ffffffffffffffffffffffffffffffffffffffff166113b682610cb4565b73ffffffffffffffffffffffffffffffffffffffff16146113d657600080fd5b6113e0838261149a565b6113ea8382611553565b6113f48282611718565b8173ffffffffffffffffffffffffffffffffffffffff168373ffffffffffffffffffffffffffffffffffffffff167fddf252ad1be2c89b69c2b068fc378daa952ba7f163c4a11628f55a4df523b3ef8360405190815260200160405180910390a3505050565b60008273ffffffffffffffffffffffffffffffffffffffff1661147c836109d4565b73ffffffffffffffffffffffffffffffffffffffff16149392505050565b8173ffffffffffffffffffffffffffffffffffffffff166114ba82610cb4565b73ffffffffffffffffffffffffffffffffffffffff16146114da57600080fd5b600081815260026020526040808220805473ffffffffffffffffffffffffffffffffffffffff1916905573ffffffffffffffffffffffffffffffffffffffff8416907f8c5be1e5ebec7d5bd14f71427d1e84f3dd0314c0f7b2291e5b200ac8c7c3b9259084905190815260200160405180910390a35050565b60008060008473ffffffffffffffffffffffffffffffffffffffff1661157885610cb4565b73ffffffffffffffffffffffffffffffffffffffff161461159857600080fd5b60008481526004602052604090205492506115c360016115b787610ceb565b9063ffffffff61180416565b73ffffffffffffffffffffffffffffffffffffffff86166000908152600360205260409020805491935090839081106115f857fe5b6000918252602080832090910154868352600182526040808420805473ffffffffffffffffffffffffffffffffffffffff1916905573ffffffffffffffffffffffffffffffffffffffff8916845260039092529120805491925082918590811061165e57fe5b600091825260208083209091019290925573ffffffffffffffffffffffffffffffffffffffff8716815260039091526040812080548490811061169d57fe5b600091825260208083209091019290925573ffffffffffffffffffffffffffffffffffffffff871681526003909152604090208054906116e190600019830161183e565b5060008481526004602052604080822082905582825281208490555461170e90600163ffffffff61180416565b6000555050505050565b60008181526001602052604081205473ffffffffffffffffffffffffffffffffffffffff161561174757600080fd5b6000828152600160205260409020805473ffffffffffffffffffffffffffffffffffffffff191673ffffffffffffffffffffffffffffffffffffffff851617905561179183610ceb565b73ffffffffffffffffffffffffffffffffffffffff84166000908152600360205260409020805491925090600181016117ca838261183e565b5060009182526020808320919091018490558382526004905260408120829055546117fc90600163ffffffff61181616565b600055505050565b60008282111561181057fe5b50900390565b60008282018381101561182557fe5b9392505050565b60206040519081016040526000815290565b8154818355818115116110135760008381526020902061101391810190830161084a91905b808211156118775760008155600101611863565b50905600a165627a7a723058202eb4c4ae542846fd513ff66a00e95f60ea4e7c9fc7111bb28bb2a0d25754569c0029",
  "source": "pragma solidity ^0.4.19;\n\nimport 'zeppelin-solidity/contracts/ownership/Ownable.sol';\nimport './Asset.sol';\n\ncontract Fundraiser is Asset, Ownable {\n\n  address public founderAddress; // Contract launcher\n\n  Campaign[] campaigns; // Campaigns tracked by the dapp\n  Token[] tokens;       // ERC721 Tokens tracked by the dapp\n\n  uint256 public maxCertificates = 100; // Max certificates a campaign may issue. Does not effect supply\n\n  mapping (uint256 => address)  public      campaignIndexToOwner;         // owner address for campaign\n  mapping (address => uint256[]) public     campaignOwnerToIndexes;       // list of campaign ids for address\n  mapping (address => uint256) public       campaignOwnerTotalCampaigns;  // count of campaigns by owner\n  mapping (uint256 => uint256) public       campaignBalance;              // current campaign balance\n  mapping (uint256 => Certificate[]) public campaignCertificates;         // list of certificates for each campaign\n  mapping (uint256 => uint256) public        campaignCertificateCount;     // count of certificates for each campaign\n\n  event CreateCampaign(address indexed owner, uint256 indexed campaignId); // Campaign has been created\n  event CreateCertificate(uint256 indexed campaignId, string name);        // Certificate added to campaign\n  event UpdateCertificate(uint256 indexed campaignId, uint256 indexed certificateIdx); // Certificate has been updated\n  event CreateToken(uint256 indexed campaignId, uint256 indexed certificateIdx, address indexed owner); // Token has been purchased\n  event WithdrawBalance(uint256 indexed campaignId, uint256 balance); // Campaign owner withdraws campaign balance\n\n  struct Token {\n    uint256 campaignId;\n    uint256 value;\n    address purchaser;\n    uint24 unitNumber;\n    uint256 certificateIdx;\n  }\n\n  // Should fit in 512 with FE sanitizing\n  struct Campaign {\n    address owner;\n    string campaignName;\n    string taxId;\n    bool active;\n    bool veto;\n    bool ready;\n  }\n\n  // Make this fit in 256B?\n  struct Certificate {\n    uint256 campaignId;\n    uint256 price;\n    uint24 supply;\n    uint24 remaining;\n    string name;\n  }\n\n  // Issues an ERC-721 token\n  function _createToken(\n    uint256 _campaignId,\n    uint256 _certificateIdx,\n    uint24 _unitNumber,\n    address _owner,\n    uint256 _value\n  )\n    internal\n    returns (uint256)\n  {\n    Token memory _token = Token({\n      campaignId: _campaignId,\n      value: _value,\n      purchaser: _owner,\n      certificateIdx: _certificateIdx,\n      unitNumber: _unitNumber\n    });\n\n    campaignCertificates[_campaignId][_certificateIdx].remaining -= 1;\n\n    uint256 newTokenId = tokens.push(_token);\n\n    _mint(_owner, newTokenId);\n\n    CreateToken(_campaignId, _certificateIdx, _owner);\n\n    return newTokenId;\n  }\n\n  // Tracks a new campaign\n  function _createCampaign(\n    address _owner,\n    string _campaignName,\n    string _taxId\n  )\n    internal\n    returns (uint256)\n  {\n    Campaign memory _campaign = Campaign({\n      owner: _owner,\n      campaignName: _campaignName,\n      taxId: _taxId,\n      active: false,\n      veto: false,\n      ready: false\n    });\n\n    uint256 newCampaignId = campaigns.push(_campaign) - 1;\n\n    campaignIndexToOwner[newCampaignId] = _owner;\n    campaignOwnerToIndexes[_owner].push(newCampaignId);\n    campaignOwnerTotalCampaigns[_owner] += 1;\n\n    CreateCampaign(_owner, newCampaignId);\n\n    return newCampaignId;\n  }\n\n  // Adds a certificate to an inactive campaign\n  function _createCertificate(\n    uint256 _campaignId,\n    uint24 _supply,\n    string _name,\n    uint256 _price\n  )\n    internal\n    returns (uint256)\n  {\n\n    Certificate memory _certificate = Certificate({\n      campaignId: _campaignId,\n      supply: _supply,\n      remaining: _supply,\n      name: _name,\n      price: _price\n    });\n\n    uint256 certificateIndex = campaignCertificates[_campaignId].push(_certificate);\n\n    campaignCertificateCount[_campaignId] += 1;\n\n    CreateCertificate(_campaignId, _name);\n\n    return certificateIndex;\n  }\n\n  // Changes the attributes of an existing certificate\n  function _updateCertificate(\n    uint256 _campaignId,\n    uint256 _certificateIdx,\n    uint24 _supply,\n    string _name,\n    uint256 _price\n  )\n    internal\n  {\n    assert(_certificateIdx < campaignCertificateCount[_campaignId]);\n\n    campaignCertificates[_campaignId][_certificateIdx].supply = _supply;\n    campaignCertificates[_campaignId][_certificateIdx].name = _name;\n    campaignCertificates[_campaignId][_certificateIdx].price = _price;\n\n    UpdateCertificate(_campaignId, _certificateIdx);\n  }\n\n  // Campaign owner withdraws campaign balance;\n  function withdrawCampaignBalance(uint256 _campaignId) public {\n    require(_campaignId > 0);\n    require(campaignIndexToOwner[_campaignId] == msg.sender);\n    require(campaignBalance[_campaignId] > 0);\n    uint256 _balance = campaignBalance[_campaignId];\n    campaignBalance[_campaignId] = 0;\n    msg.sender.transfer(_balance);\n\n    WithdrawBalance(_campaignId, _balance);\n  }\n\n  // Hard cap at 1000 Certificates. Well under Veto gas limits.\n  function changeMaxCertificates(uint256 _maxCertificates) public onlyOwner {\n    require(_maxCertificates <= 1000);\n    maxCertificates = _maxCertificates;\n  }\n\n  // Views\n  function getCampaign(uint256 _id)\n    public\n    view\n    returns\n  (\n    address owner,\n    string campaignName,\n    string taxId,\n    bool active,\n    bool veto,\n    bool ready\n  ) {\n    Campaign storage campaign = campaigns[_id];\n\n    owner = campaign.owner;\n    campaignName = campaign.campaignName;\n    taxId = campaign.taxId;\n    active = campaign.active;\n    veto = campaign.veto;\n    ready = campaign.ready;\n  }\n\n  function getCertificate(uint256 _campaignId, uint64 _certificateIdx)\n    public\n    view\n    returns\n  (\n    uint256 campaignId,\n    uint24 supply,\n    uint24 remaining,\n    string name,\n    uint256 price\n  ){\n\n    Certificate storage certificate = campaignCertificates[_campaignId][_certificateIdx];\n\n    campaignId = uint256(certificate.campaignId);\n    supply = uint24(certificate.supply);\n    remaining = uint24(certificate.remaining);\n    name = certificate.name;\n    price = uint256(certificate.price);\n  }\n\n  function getToken(uint256 _id)\n    public\n    view\n    returns\n  (\n    uint256 campaignId,\n    uint256 value,\n    uint24 unitNumber,\n    address purchaser,\n    uint256 certificateIdx\n  ){\n    Token storage token = tokens[_id];\n\n    campaignId = uint256(token.campaignId);\n    value = uint256(token.value);\n    unitNumber = uint24(token.unitNumber);\n    purchaser = address(token.purchaser);\n    certificateIdx = uint256(token.certificateIdx);\n  }\n\n  function getTotalCampaignsForOwner(address _owner)\n    public\n    view\n    returns (\n    uint256 total\n  ){\n    total = campaignOwnerTotalCampaigns[_owner];\n  }\n\n  function getCampaignIdByOwnerIndex(address _owner, uint256 _index)\n    public\n    view\n    returns\n  (\n    uint256 id\n  ){\n    id = campaignOwnerToIndexes[_owner][_index];\n  }\n\n  function totalCampaigns() public view returns (uint256) {\n    return campaigns.length - 1;\n  }\n\n  function getCampaignBalance(uint256 _campaignId) public view returns (uint256) {\n    return campaignBalance[_campaignId];\n  }\n}",
  "sourcePath": "/home/hayek/proj/heritage/contracts/dapp/Fundraiser.sol",
  "compiler": {
    "name": "solc",
    "version": "0.4.21+commit.dfe3193c.Emscripten.clang"
  },
  "schemaVersion": "2.0.0",
  "updatedAt": "2018-06-04T18:20:45.943Z"
}